:1000000045C0000061C000005FC000005DC000008E
:100010005BC0000059C0000057C0000055C0000080
:1000200053C0000051C000004FC000004DC0000090
:100030004BC00000D1C0000047C0000045C0000018
:1000400043C0000041C000003FC000003DC00000B0
:100050003BC0000039C0000037C0000035C00000C0
:1000600033C0000031C000002FC000002DC00000D0
:100070002BC0000029C0000027C0000025C00000E0
:1000800023C0000021C000001FC0000011241FBEBB
:10009000CFEFD0E4DEBFCDBF13E0A0E0B1E0ECEEE7
:1000A000F5E100E00BBF02C007900D92AC37B1073D
:1000B000D9F723E0ACE7B3E001C01D92A93BB2073A
:1000C000E1F789D70C94F40A9BCF5D9808955D9A67
:1000D0000895FDDFFACF08955C9808955C9A08951D
:1000E000FDDFFACF08955B9808955B9A08950F930A
:1000F0001F93CF93DF93C0E0D0E0082F10E098016A
:100100000C2E02C0220F331F0A94E2F727FF02C011
:10011000ECDF01C0E8DFDDDF2196C830D10579F7DB
:10012000DF91CF911F910F9108950F931F93CF935C
:10013000DF93C0E0D0E0082F10E098010C2E02C041
:10014000359527950A94E2F720FF02C0CEDF01C063
:10015000CADFBFDF2196C830D10579F7DF91CF9193
:100160001F910F9108951F93CF93DF93C62F142FE4
:10017000D22FDBDF812F8095BADF8D2F8095B7DFFF
:100180008C2F8095B4DFACDFDF91CF911F91089564
:100190008BE0809381008DE790E0909389008093BD
:1001A000880082E080936F00109285001092840096
:1001B0008091300390913103A0913203B0913303C9
:1001C0008093B0039093B103A093B203B093B303B1
:1001D0008FB780688FBF08951F920F920FB60F924E
:1001E00011248F939F93AF93BF938091B00390910D
:1001F000B103A091B203B091B3030197A109B10972
:100200008093B0039093B103A093B203B093B30370
:10021000892B8A2B8B2B99F481E08093B4038091F6
:10022000300390913103A0913203B0913303809356
:10023000B0039093B103A093B203B093B303BF9103
:10024000AF919F918F910F900FBE0F901F901895B7
:10025000CF92DF92EF92FF926B017C0120919D0380
:1002600030919E0340919F035091A0030E94410949
:10027000882309F456C020E030E0A901C701B60187
:100280000E944109811106C0E1E9F0E08081887097
:10029000808305C0E1E9F0E080818360808328E508
:1002A00039E344E75FE3C701B601EBD788233CF4A9
:1002B0008FEF9FEF909399008093980026C020E0E5
:1002C00034E244EF56E4C701B6010E94530A1816FF
:1002D0002CF4109299001092980017C020E030E0A2
:1002E00040E053E4C701B6010E94570A9B01AC01EC
:1002F00060E074E284EF9AE4C8D70E94AD096150CF
:100300007109709399006093980010929500109273
:100310009400C0929D03D0929E03E0929F03F092BE
:10032000A003FF90EF90DF90CF90089580E480933A
:1003300090008BE08093910060E070E0CB0188CF6B
:10034000089580E480937C0087E880937A00089584
:10035000ECE7F0E090818770987F982B9083EAE734
:10036000F0E0808180648083808186FDFDCFEAE7B4
:10037000F0E08081806180838091780090917900A5
:100380000895CF9385E0E4DF80539240C1E083334A
:1003900091050CF4C0E08E3C9F4F0CF4C26086E0E7
:1003A000D7DF8F519240833391050CF0C4608E3CAF
:1003B0009F4F0CF4C8608C2FCF9108950F931F931B
:1003C000CF93DF93082FEB0114E0180F812FFFD696
:1003D0009E01ADECBCEC0E94BA0A96958795969565
:1003E000879596958795AC01440F551F9C01220F68
:1003F000331F220F331F220F331F240F351FCE014F
:10040000821B930B9C0180E3820F90E0E8D69E0153
:10041000ADECBCEC0E94BA0AEC01D695C795D69516
:10042000C795D695C79511501013D0CF80E2CFD67F
:10043000DF91CF911F910F910895CF93DF9380B1FA
:1004400090E080959095EC01C770DD278091B50311
:10045000813051F028F08230A1F0833049F130C072
:1004600081E08093B5033EC0CE010197029718F05A
:10047000C430D105B9F582E08093B5031092A8038A
:100480001FC0C130D105D1F5E091A903F0E0EE0F16
:10049000FF1FE65DFE4F6081718181E0C5D681E07E
:1004A0008093A70383E08093B5031092A80308C04C
:1004B0008091A703811155C082E08093B5031EC0CF
:1004C0008091B503813071F030F08230B9F0833023
:1004D00009F08AC046C01092A9031092A803109296
:1004E000A70382C08091A803811104C062E473E075
:1004F00081E09AD681E08093A80376C0C230D1050E
:1005000089F44091A903242F30E080912F0390E0DB
:1005100001972817390794F44F5F4093A90310926D
:10052000A80310C0249751F48091A903882331F0C7
:1005300081508093A9031092A80304C08091A8035E
:1005400081110BC0E091A903F0E0EE0FFF1FE65D03
:10055000FE4F6081718181E067D681E08093A803BE
:1005600043C08091A80381112AC081E130D683E580
:1005700090E035D682E12BD683E690E030D683E159
:1005800026D68FE690E02BD684E121D682E790E054
:1005900026D685E11CD685E690E021D686E117D6E1
:1005A0008AE390E01CD687E112D680E290E017D66D
:1005B00060E070E088E102DF81E08093A803609151
:1005C000AC037091AD038091AE039091AF03861799
:1005D000970751F088E1F2DE8091AC039091AD0372
:1005E0009093AF038093AE03DF91CF9108950F9363
:1005F0001F93CF93DF93C0E0D1E00EE011E0E991CB
:10060000F9912381428161818081ADDDC017D107DD
:10061000B1F7DF91CF911F910F910895FF920F9342
:100620001F93CF93DF93162F482F50E09A01220F8C
:10063000331FF901ED5AFE4FA081B1816D917D917B
:100640008D919C911397F901E15BFE4FC081D1819F
:100650002881211798F5FA01EE0FFF1FE55BFE4F89
:1006600040815181FA01F080F20EF116F0F400E0C1
:1006700007C0FA01E20FF31F8081F80EF116D0F4E3
:100680000F5F202F30E0FD0184E0089FE00DF11D99
:1006900011246081718182819381FE01E20FF31F39
:1006A000E081FE0EF11628F309C060E070E080E8FA
:1006B0009FEB04C060E070E080E89FEBDF91CF919A
:1006C0001F910F91FF9008957F928F929F92AF920A
:1006D000BF92CF92DF92EF92FF920F931F93CF932F
:1006E000DF93982EA62EC0E0D0E0712C812CB12C87
:1006F00002E010E06C2F6A0D892D90DF6B017C0108
:1007000020E030ED44E254E4BCD5811109C09801E9
:100710000C2E02C0220F331F0A94E2F7B22A70C0D7
:100720002CE53FEF43E454E4C701B601AAD581119B
:1007300009C098010C2E02C0220F331F0A94E2F761
:10074000822A5EC021E73DE94EE254E4C701B601CA
:1007500098D5811109C0C8010C2E02C0880F991FBD
:100760000A94E2F7782A4CC02FE135ED42E154E4D7
:10077000C701B60186D581110AC0C8010C2E02C07E
:10078000880F991F0A94E2F7882A782A39C020E056
:1007900030E04CE554E4C701B60173D581110AC0BD
:1007A000C8010C2E02C0880F991F0A94E2F7B82ADC
:1007B000882A26C020E030ED42E054E4C701B601AB
:1007C00060D581110AC0C8010C2E02C0880F991F84
:1007D0000A94E2F7B82A782A13C024EA30EF46EFE9
:1007E00053E4C701B6014DD581110AC0C8010C2ED2
:1007F00002C0880F991F0A94E2F7B82A882A782A3B
:100800002196C730D10509F075CFB09222018092B0
:100810001E0170921A01DF91CF911F910F91FF90ED
:10082000EF90DF90CF90BF90AF909F908F907F9090
:1008300008958091B803813059F030F08230D9F0BA
:10084000833009F455C07FC081E08093B8030895D8
:100850008091A703813009F0B9C082E08093B8038A
:100860008091A6038F5F8093A6038091A4038F5F7E
:100870008093A40368C04091A4034A3110F0109201
:10088000A3033091AA033F5F3093AA038091A90389
:1008900090E02091AB03FC01E75BFE4F50812517F0
:1008A00010F5FC01EE0FFF1FE15BFE4F0190F081A0
:1008B000E02DE20FF11D8081831748F42F5F209314
:1008C000AB0383E08093B8031092AA033CC082E09C
:1008D0008093B8038091A6038F5F8093A6034F5F38
:1008E0004093A40330C01092A7031092B80333C002
:1008F0008091A4038A3110F01092A3038091AA037F
:100900008F5F8093AA03E091A903F0E0EE0FFF1F31
:10091000E55BFE4F9091AB030190F081E02DE90F74
:10092000F11D31979081981730F482E08093B803DD
:100930001092AA0308C083E08093B8038091A603B5
:100940008F5F8093A6038091B803823089F0833053
:10095000A1F181113BC01092AB031092AA03109237
:10096000A6031092A40360E070E0CB0171CC08955F
:100970008091A5038130B9F4E091A903F0E0EE0F76
:10098000FF1FED5AFE4F8091AB030190F081E02DE7
:1009900094E0899FE00DF11D1124608171818281B5
:1009A000938156DC04C060E070E0CB0151DC6091C3
:1009B000A6038091A90388CE089560E070E0CB0182
:1009C00047DC6091A6038091A9037ECE0895109222
:1009D00016011092120110920E010895CF93DF9329
:1009E000C0B18091B703813041F018F0823071F0CE
:1009F000C1C081E08093B703EBC28091A70381302F
:100A000009F0E6C282E08093B703C6C08091A703D5
:100A10008111C2C08091A903811151C080E090E092
:100A2000B8D56091AC037091AD0386179707C0F4F9
:100A300080E090E0B3D561E673E081E0F5D36091AA
:100A4000AC037091AD0385E1B9DC81E1C0D380E0F6
:100A500090E0C5D380E2BBD380E090E0C0D387C0F4
:100A600060E773E081E0E0D380E090E092D5BC01E4
:100A70008CE0A4DC81E1ABD389E590E0B0D382E1E6
:100A8000A6D38FE690E0ABD383E1A1D385E790E0D6
:100A9000A6D384E19CD382E790E0A1D385E197D3EC
:100AA00083E790E09CD386E192D380E290E097D3F5
:100AB0006091AC037091AD038CE180DC58C0813053
:100AC00009F055C08FE090E064D56091AC0370915F
:100AD000AD0386179707C0F48FE090E05FD561E61D
:100AE00073E081E0A1D36091AC037091AD0385E127
:100AF00065DC81E16CD380E090E071D380E267D364
:100B000080E090E06CD333C060E773E081E08CD389
:100B10008FE090E03ED5BC018CE050DC81E157D302
:100B200089E590E05CD382E152D38FE690E057D321
:100B300083E14DD385E790E052D384E148D382E747
:100B400090E04DD385E143D387E290E048D386E13E
:100B50003ED383E790E043D387E139D380E290E04E
:100B60003ED36091AC037091AD038CE127DC109211
:100B7000B70305C0882319F0823071F029C21092A2
:100B8000A2031092AD031092AC031092A103109235
:100B9000A5031092A3031CC2F4DB8093B6032FEFCE
:100BA000280F91E0223008F090E0911108C091E008
:100BB0002091A903213009F090E0992321F091E0E0
:100BC0009093A10302C01092A10391E0883009F034
:100BD00090E0911106C091E0843009F090E09923F3
:100BE000B1F081E08093A30380E680932401809399
:100BF000180188E1809321018093150186E080939C
:100C00001C018093100180931B0180930F01809140
:100C1000A303811110C010922401109218011092A8
:100C200021011092150110921C01109210011092D6
:100C30001B0110920F018C2F80958770843009F072
:100C40003DC08091A203843009F0C1DE81E0809331
:100C5000160184E08093A2036091A6038091A9030A
:100C6000DDDCC1E0D0E020E030ED44E254E409D323
:100C7000882311F0C0E0D0E08091A10390E0C82368
:100C8000D923CD2BC1F08091AC039091AD039C0191
:100C9000265F3F4F3093AD032093AC032091A30315
:100CA000213029F444969093AD038093AC0381E006
:100CB0008093A5038DC11092A5038AC1823009F0EB
:100CC0003DC08091A203823009F081DE81E08093F3
:100CD000120182E08093A2036091A6038091A90390
:100CE0009DDCC1E0D0E02CE53FEF43E454E4C9D201
:100CF000882311F0C0E0D0E08091A10390E0C823E8
:100D0000D923CD2BC1F08091AC039091AD039C0110
:100D1000265F3F4F3093AD032093AC032091A30394
:100D2000213029F444969093AD038093AC0381E085
:100D30008093A5034DC11092A5034AC1813009F0EB
:100D40003CC08091A203813009F041DE81E08093B4
:100D50000E018093A2036091A6038091A9035EDC3B
:100D6000C1E0D0E021E73DE94EE254E48AD2882395
:100D700011F0C0E0D0E08091A10390E0C823D92316
:100D8000CD2BC1F08091AC039091AD039C01265F07
:100D90003F4F3093AD032093AC032091A303213048
:100DA00029F444969093AD038093AC0381E0809343
:100DB000A5030EC11092A5030BC1833009F03FC0FB
:100DC0008091A203833009F002DE81E0809312015A
:100DD00080930E0183E08093A2036091A60380912B
:100DE000A9031CDCC1E0D0E02FE135ED42E154E481
:100DF00048D2882311F0C0E0D0E08091A10390E0B8
:100E0000C823D923CD2BC1F08091AC039091AD03C1
:100E10009C01265F3F4F3093AD032093AC0320919C
:100E2000A303213029F444969093AD038093AC033F
:100E300081E08093A503CCC01092A503C9C0863081
:100E400009F03FC08091A203863009F0C0DD81E047
:100E5000809316018093120186E08093A203609133
:100E6000A6038091A903DADBC1E0D0E020E030E006
:100E70004CE554E406D2882311F0C0E0D0E0809124
:100E8000A10390E0C823D923CD2BC1F08091AC03FE
:100E90009091AD039C01265F3F4F3093AD032093AB
:100EA000AC032091A303213029F444969093AD0321
:100EB0008093AC0381E08093A5038AC01092A503C0
:100EC00087C0853009F03FC08091A203853009F0CA
:100ED0007EDD81E08093160180930E0185E0809392
:100EE000A2036091A6038091A90398DBC1E0D0E042
:100EF00020E030ED42E054E4C4D1882311F0C0E09A
:100F0000D0E08091A10390E0C823D923CD2BC1F07C
:100F10008091AC039091AD039C01265F3F4F3093CD
:100F2000AD032093AC032091A303213029F4449610
:100F30009093AD038093AC0381E08093A50348C0F8
:100F40001092A50345C0873009F041C08091A203EB
:100F5000873009F03CDD81E0809316018093120117
:100F600080930E0187E08093A2036091A603809195
:100F7000A90354DBC1E0D0E024EA30EF46EF53E4AC
:100F800080D1882311F0C0E0D0E08091A10390E0EF
:100F9000C823D923CD2BC1F08091AC039091AD0330
:100FA0009C01265F3F4F3093AD032093AC0320910B
:100FB000A303213029F444969093AD038093AC03AE
:100FC00081E08093A50304C01092A50301C0FFDC5B
:100FD000DF91CF910895CF93DF9300D000D000D060
:100FE000CDB7DEB711B88FEF82B984B915B887B91C
:100FF00018B88AB91BB8A5D931D198D980E090E04A
:10100000C8D2019629F460E070E080E090E0C6D29A
:101010008FE090E0BED2019629F460E070E08FE0AE
:1010200090E0BCD286E0ECE3F3E0DE0111960190A3
:101030000D928A95E1F71092920382E090E0A0E091
:10104000B0E08093930390939403A0939503B0939F
:1010500096038093970390939803A0939903B0937A
:101060009A038DE192E090939C0380939B031092EE
:10107000870381E090E0A0E0B0E080938803909344
:101080008903A0938A03B0938B0380938C0390937E
:101090008D03A0938E03B0938F0329E134E0309346
:1010A00091032093900310927C0380937D0390938F
:1010B0007E03A0937F03B09380038093810390937A
:1010C0008203A0938303B09384038EEE94E0909305
:1010D00086038093850384E690E0A0E0B0E08093EF
:1010E000300390933103A0933203B0933303809382
:1010F000B0039093B103A093B203B093B30348D865
:101100007E01B7E0EB0EF11C72DAFE0131966F0141
:10111000D6010D911D916D01F801458156816781C0
:10112000708581819281A381B481481759076A072C
:101130007B0779F480810184F285E02D992787FD72
:1011400090950995D8018C93F80115821682178223
:101150001086F80185819681A781B0850196A11D31
:10116000B11D85839683A783B087CE14DF0481F6F3
:101170008091B403811105C03ADA8091B4038823C9
:10118000D9F31092B403C0CF181619069CF440E0AE
:1011900050E077E063E00BC00000215031092115D9
:1011A0003105D1F74F5F5F4F4817590719F0272FC7
:1011B000362FF2CF08955E9888B95F9A00005F9845
:1011C00082E090E0E1CF089581E0F5CF089581318C
:1011D00018F48158F0CF08958155EDCF08955E9AA7
:1011E00088B95F9A00005F9881E090E0CDCF0895C4
:1011F0000F931F93CF93DF93062F172F883068F438
:10120000880F880F880F805CD6DFC02FD12F18E0A1
:10121000899190E0E4DF1150D9F780E8CCDFDF91CD
:10122000CF911F910F9108950F931F93CF93DF9349
:10123000182FEB01C9DF8881882359F001E0010FE5
:10124000812FC5DF8991CBDF8881882311F0102F92
:10125000F5CFDF91CF911F910F91089584E690E033
:1012600093DF88E3A8DF86E0A6DF8FE0A4DF81E0DC
:10127000A2DF8AE090E088DF64E373E080E0B8CF2B
:1012800008959CD008F481E008950CD0D2C0CAD053
:1012900040F0C1D030F021F45F3F19F0B3C05111DC
:1012A000FCC0B6C0D7D098F39923C9F35523B1F346
:1012B000951B550BBB27AA2762177307840738F0C5
:1012C0009F5F5F4F220F331F441FAA1FA9F333D024
:1012D0000E2E3AF0E0E830D091505040E695001CD8
:1012E000CAF729D0FE2F27D0660F771F881FBB1F94
:1012F000261737074807AB07B0E809F0BB0B802D6E
:10130000BF01FF2793585F4F2AF09E3F510568F0B9
:1013100079C0C3C05F3FECF3983EDCF386957795C8
:101320006795B795F7959F5FC9F7880F911D9695BB
:10133000879597F90895E1E0660F771F881FBB1F17
:10134000621773078407BA0720F0621B730B840BC4
:10135000BA0BEE1F88F7E095089504D06894B11198
:101360009CC008957FD088F09F5790F0B92F99279F
:10137000B751A0F0D1F0660F771F881F991F1AF0A0
:10138000BA95C9F712C0B13081F086D0B1E00895A6
:1013900083C0672F782F8827B85F39F0B93FCCF327
:1013A000869577956795B395D9F73EF49095809596
:1013B000709561957F4F8F4F9F4F0895990F00084B
:1013C000550FAA0BE0E8FEEF16161706E807F90717
:1013D000C0F012161306E407F50798F0621B730BB2
:1013E000840B950B39F40A2661F0232B242B252B33
:1013F00021F408950A2609F4A140A6958FEF811DD6
:10140000811D089597F99F6780E870E060E0089576
:101410009FEF80EC089500240A941616170618060C
:101420000906089500240A941216130614060506E8
:101430000895092E0394000C11F4882352F0BB0F79
:1014400040F4BF2B11F460FF04C06F5F7F4F8F4FDC
:101450009F4F089557FD9058440F551F59F05F3F17
:1014600071F04795880F97FB991F61F09F3F79F0C6
:1014700087950895121613061406551FF2CF469548
:10148000F1DF08C0161617061806991FF1CF8695CA
:101490007105610508940895E894BB2766277727AE
:1014A000CB0197F908958ADF08F48FEF08950BD0E8
:1014B000C0CFB1DF28F0B6DF18F0952309F0A2CF36
:1014C000A7CF1124EACFC6DFA0F3959FD1F3950FE4
:1014D00050E0551F629FF001729FBB27F00DB11DB8
:1014E000639FAA27F00DB11DAA1F649F6627B00D48
:1014F000A11D661F829F2227B00DA11D621F739F31
:10150000B00DA11D621F839FA00D611D221F749F3E
:101510003327A00D611D231F849F600D211D822F85
:10152000762F6A2F11249F5750408AF0E1F08823CC
:101530004AF0EE0FFF1FBB1F661F771F881F9150D9
:101540005040A9F79E3F510570F05CCFA6CF5F3F9A
:10155000ECF3983EDCF3869577956795B795F7950C
:10156000E7959F5FC1F7FE2B880F911D9695879594
:1015700097F90895A29FB001B39FC001A39F700D7A
:10158000811D1124911DB29F700D811D1124911D8B
:101590000895A8E1B0E042E050E006C00196272F90
:1015A00012D010C0DC01CB01FC01F999FECF06C0BE
:1015B000F2BDE1BDF89A319600B40D924150504011
:1015C000B8F70895262FF999FECF92BD81BDF89AFC
:1015D000019700B4021639F01FBA20BD0FB6F89477
:0C15E000FA9AF99A0FBE0895F894FFCF14
:1015EC00260122011E011A01160112010E01000032
:1015FC00000600001800006000000F000006F0005C
:10160C001800FF600000FF8100813C012E0146693B
:10161C007265204E20466C616D6573004C75676970
:10162C0061277320536F6E67000E41DC025701E98E
:10163C00029701F702D80101010101010101010129
:10164C00010101010101010101010101010101017E
:10165C00010101010101010101010101010101016E
:10166C00010101010101010101010101010101015E
:10167C000101010101010008020202020202020240
:10168C00020202020202020202020202020202022E
:10169C00020202020202020202020202020202021E
:1016AC000202010101020202020102020202020113
:1016BC0002020202010101050000000000D02444D6
:1016CC005CFF434400D024445CFF4344719D2E4492
:1016DC00719D2E445CFF43445CFF434400D0244482
:1016EC005CFF434400D024445CFF4344719D2E4472
:1016FC00719D2E445CFF43445CFF434400D0244462
:10170C005CFF434400D024445CFF4344719D2E4451
:10171C00719D2E445CFF43445CFF434400D0244441
:10172C005CFF434400D024445CFF4344719D2E4431
:10173C00719D2E445CFF43445CFF434400D0244421
:10174C005CFF434400D024445CFF4344719D2E4411
:10175C00719D2E445CFF43445CFF434400D0244401
:10176C0000D0244400D0244400D0244400D024448D
:10177C0000D0244400D02444719D2E44719D2E44ED
:10178C00719D2E44719D2E44719D2E445CFF4344EB
:10179C005CFF43445CFF43445CFF43445CFF4344B5
:1017AC005CFF434400D0244400D0244400D02444A3
:1017BC005CFF43445CFF4344719D2E4401010103D3
:1017CC0001010401010101010108050506030507DA
:1017DC00050506020202080000000000D024445C4B
:1017EC00FF4344719D2E441FD5124400D02444A4C1
:1017FC00F0F64300D024445CFF4344719D2E44A476
:10180C00F0F64300D024445CFF434400005C4402E7
:10181C000100000000000A00110E00009203870373
:10182C007C03427574746F6E204865726F202020A3
:10183C002020507265737320746F2053746172741E
:10184C00004E657720486967682053636F726500A6
:0C185C00486967682053636F72652000C4
:00000001FF
